{
  "contractName": "CarTokens",
  "abi": [
    {
      "inputs": [
        {
          "internalType": "string",
          "name": "_name",
          "type": "string"
        },
        {
          "internalType": "string",
          "name": "_symbol",
          "type": "string"
        }
      ],
      "stateMutability": "nonpayable",
      "type": "constructor"
    },
    {
      "anonymous": false,
      "inputs": [
        {
          "indexed": true,
          "internalType": "address",
          "name": "owner",
          "type": "address"
        },
        {
          "indexed": true,
          "internalType": "address",
          "name": "approved",
          "type": "address"
        },
        {
          "indexed": true,
          "internalType": "uint256",
          "name": "tokenId",
          "type": "uint256"
        }
      ],
      "name": "Approval",
      "type": "event"
    },
    {
      "anonymous": false,
      "inputs": [
        {
          "indexed": true,
          "internalType": "address",
          "name": "owner",
          "type": "address"
        },
        {
          "indexed": true,
          "internalType": "address",
          "name": "operator",
          "type": "address"
        },
        {
          "indexed": false,
          "internalType": "bool",
          "name": "approved",
          "type": "bool"
        }
      ],
      "name": "ApprovalForAll",
      "type": "event"
    },
    {
      "anonymous": false,
      "inputs": [
        {
          "indexed": true,
          "internalType": "address",
          "name": "owner",
          "type": "address"
        },
        {
          "indexed": false,
          "internalType": "uint256",
          "name": "id",
          "type": "uint256"
        },
        {
          "indexed": false,
          "internalType": "uint256",
          "name": "enginePower",
          "type": "uint256"
        },
        {
          "indexed": false,
          "internalType": "uint256",
          "name": "aerodynamicStability",
          "type": "uint256"
        },
        {
          "indexed": false,
          "internalType": "uint256",
          "name": "chasis",
          "type": "uint256"
        }
      ],
      "name": "NewCar",
      "type": "event"
    },
    {
      "anonymous": false,
      "inputs": [
        {
          "indexed": true,
          "internalType": "address",
          "name": "previousOwner",
          "type": "address"
        },
        {
          "indexed": true,
          "internalType": "address",
          "name": "newOwner",
          "type": "address"
        }
      ],
      "name": "OwnershipTransferred",
      "type": "event"
    },
    {
      "anonymous": false,
      "inputs": [
        {
          "indexed": true,
          "internalType": "address",
          "name": "from",
          "type": "address"
        },
        {
          "indexed": true,
          "internalType": "address",
          "name": "to",
          "type": "address"
        },
        {
          "indexed": true,
          "internalType": "uint256",
          "name": "tokenId",
          "type": "uint256"
        }
      ],
      "name": "Transfer",
      "type": "event"
    },
    {
      "inputs": [],
      "name": "_owner_",
      "outputs": [
        {
          "internalType": "address",
          "name": "",
          "type": "address"
        }
      ],
      "stateMutability": "view",
      "type": "function"
    },
    {
      "inputs": [
        {
          "internalType": "address",
          "name": "to",
          "type": "address"
        },
        {
          "internalType": "uint256",
          "name": "tokenId",
          "type": "uint256"
        }
      ],
      "name": "approve",
      "outputs": [],
      "stateMutability": "nonpayable",
      "type": "function"
    },
    {
      "inputs": [
        {
          "internalType": "address",
          "name": "owner",
          "type": "address"
        }
      ],
      "name": "balanceOf",
      "outputs": [
        {
          "internalType": "uint256",
          "name": "",
          "type": "uint256"
        }
      ],
      "stateMutability": "view",
      "type": "function"
    },
    {
      "inputs": [
        {
          "internalType": "uint256",
          "name": "",
          "type": "uint256"
        }
      ],
      "name": "bets",
      "outputs": [
        {
          "internalType": "uint256",
          "name": "carId",
          "type": "uint256"
        },
        {
          "internalType": "address",
          "name": "player",
          "type": "address"
        },
        {
          "internalType": "uint256",
          "name": "betAmount",
          "type": "uint256"
        }
      ],
      "stateMutability": "view",
      "type": "function"
    },
    {
      "inputs": [
        {
          "internalType": "uint256",
          "name": "",
          "type": "uint256"
        }
      ],
      "name": "cars",
      "outputs": [
        {
          "internalType": "uint256",
          "name": "id",
          "type": "uint256"
        },
        {
          "internalType": "uint256",
          "name": "vin",
          "type": "uint256"
        },
        {
          "internalType": "string",
          "name": "name",
          "type": "string"
        },
        {
          "internalType": "uint256",
          "name": "enginePower",
          "type": "uint256"
        },
        {
          "internalType": "uint256",
          "name": "aerodynamicStability",
          "type": "uint256"
        },
        {
          "internalType": "uint256",
          "name": "chasis",
          "type": "uint256"
        }
      ],
      "stateMutability": "view",
      "type": "function"
    },
    {
      "inputs": [
        {
          "internalType": "uint256",
          "name": "tokenId",
          "type": "uint256"
        }
      ],
      "name": "getApproved",
      "outputs": [
        {
          "internalType": "address",
          "name": "",
          "type": "address"
        }
      ],
      "stateMutability": "view",
      "type": "function"
    },
    {
      "inputs": [
        {
          "internalType": "address",
          "name": "owner",
          "type": "address"
        },
        {
          "internalType": "address",
          "name": "operator",
          "type": "address"
        }
      ],
      "name": "isApprovedForAll",
      "outputs": [
        {
          "internalType": "bool",
          "name": "",
          "type": "bool"
        }
      ],
      "stateMutability": "view",
      "type": "function"
    },
    {
      "inputs": [
        {
          "internalType": "uint256",
          "name": "",
          "type": "uint256"
        }
      ],
      "name": "lotteryHistory",
      "outputs": [
        {
          "internalType": "address payable",
          "name": "",
          "type": "address"
        }
      ],
      "stateMutability": "view",
      "type": "function"
    },
    {
      "inputs": [],
      "name": "lotteryId",
      "outputs": [
        {
          "internalType": "uint256",
          "name": "",
          "type": "uint256"
        }
      ],
      "stateMutability": "view",
      "type": "function"
    },
    {
      "inputs": [],
      "name": "name",
      "outputs": [
        {
          "internalType": "string",
          "name": "",
          "type": "string"
        }
      ],
      "stateMutability": "view",
      "type": "function"
    },
    {
      "inputs": [],
      "name": "owner",
      "outputs": [
        {
          "internalType": "address",
          "name": "",
          "type": "address"
        }
      ],
      "stateMutability": "view",
      "type": "function"
    },
    {
      "inputs": [
        {
          "internalType": "uint256",
          "name": "tokenId",
          "type": "uint256"
        }
      ],
      "name": "ownerOf",
      "outputs": [
        {
          "internalType": "address",
          "name": "",
          "type": "address"
        }
      ],
      "stateMutability": "view",
      "type": "function"
    },
    {
      "inputs": [],
      "name": "playerCount",
      "outputs": [
        {
          "internalType": "uint256",
          "name": "",
          "type": "uint256"
        }
      ],
      "stateMutability": "view",
      "type": "function"
    },
    {
      "inputs": [
        {
          "internalType": "uint256",
          "name": "",
          "type": "uint256"
        }
      ],
      "name": "players",
      "outputs": [
        {
          "internalType": "address payable",
          "name": "",
          "type": "address"
        }
      ],
      "stateMutability": "view",
      "type": "function"
    },
    {
      "inputs": [],
      "name": "renounceOwnership",
      "outputs": [],
      "stateMutability": "nonpayable",
      "type": "function"
    },
    {
      "inputs": [
        {
          "internalType": "address",
          "name": "from",
          "type": "address"
        },
        {
          "internalType": "address",
          "name": "to",
          "type": "address"
        },
        {
          "internalType": "uint256",
          "name": "tokenId",
          "type": "uint256"
        }
      ],
      "name": "safeTransferFrom",
      "outputs": [],
      "stateMutability": "nonpayable",
      "type": "function"
    },
    {
      "inputs": [
        {
          "internalType": "address",
          "name": "from",
          "type": "address"
        },
        {
          "internalType": "address",
          "name": "to",
          "type": "address"
        },
        {
          "internalType": "uint256",
          "name": "tokenId",
          "type": "uint256"
        },
        {
          "internalType": "bytes",
          "name": "_data",
          "type": "bytes"
        }
      ],
      "name": "safeTransferFrom",
      "outputs": [],
      "stateMutability": "nonpayable",
      "type": "function"
    },
    {
      "inputs": [
        {
          "internalType": "address",
          "name": "operator",
          "type": "address"
        },
        {
          "internalType": "bool",
          "name": "approved",
          "type": "bool"
        }
      ],
      "name": "setApprovalForAll",
      "outputs": [],
      "stateMutability": "nonpayable",
      "type": "function"
    },
    {
      "inputs": [
        {
          "internalType": "bytes4",
          "name": "interfaceId",
          "type": "bytes4"
        }
      ],
      "name": "supportsInterface",
      "outputs": [
        {
          "internalType": "bool",
          "name": "",
          "type": "bool"
        }
      ],
      "stateMutability": "view",
      "type": "function"
    },
    {
      "inputs": [],
      "name": "symbol",
      "outputs": [
        {
          "internalType": "string",
          "name": "",
          "type": "string"
        }
      ],
      "stateMutability": "view",
      "type": "function"
    },
    {
      "inputs": [
        {
          "internalType": "uint256",
          "name": "tokenId",
          "type": "uint256"
        }
      ],
      "name": "tokenURI",
      "outputs": [
        {
          "internalType": "string",
          "name": "",
          "type": "string"
        }
      ],
      "stateMutability": "view",
      "type": "function"
    },
    {
      "inputs": [
        {
          "internalType": "address",
          "name": "from",
          "type": "address"
        },
        {
          "internalType": "address",
          "name": "to",
          "type": "address"
        },
        {
          "internalType": "uint256",
          "name": "tokenId",
          "type": "uint256"
        }
      ],
      "name": "transferFrom",
      "outputs": [],
      "stateMutability": "nonpayable",
      "type": "function"
    },
    {
      "inputs": [
        {
          "internalType": "address",
          "name": "newOwner",
          "type": "address"
        }
      ],
      "name": "transferOwnership",
      "outputs": [],
      "stateMutability": "nonpayable",
      "type": "function"
    },
    {
      "inputs": [
        {
          "internalType": "uint256",
          "name": "_fee",
          "type": "uint256"
        }
      ],
      "name": "setFee",
      "outputs": [],
      "stateMutability": "nonpayable",
      "type": "function"
    },
    {
      "inputs": [
        {
          "internalType": "uint256",
          "name": "lottery",
          "type": "uint256"
        }
      ],
      "name": "getWinnerByLottery",
      "outputs": [
        {
          "internalType": "address payable",
          "name": "",
          "type": "address"
        }
      ],
      "stateMutability": "view",
      "type": "function"
    },
    {
      "inputs": [],
      "name": "getPotBalance",
      "outputs": [
        {
          "internalType": "uint256",
          "name": "",
          "type": "uint256"
        }
      ],
      "stateMutability": "view",
      "type": "function"
    },
    {
      "inputs": [],
      "name": "getPlayers",
      "outputs": [
        {
          "internalType": "address payable[]",
          "name": "",
          "type": "address[]"
        }
      ],
      "stateMutability": "view",
      "type": "function"
    },
    {
      "inputs": [
        {
          "internalType": "uint256",
          "name": "_carId",
          "type": "uint256"
        },
        {
          "internalType": "uint256",
          "name": "_betAmount",
          "type": "uint256"
        }
      ],
      "name": "enterWithCar",
      "outputs": [],
      "stateMutability": "payable",
      "type": "function"
    },
    {
      "inputs": [],
      "name": "pickWinner",
      "outputs": [],
      "stateMutability": "nonpayable",
      "type": "function"
    },
    {
      "inputs": [],
      "name": "pickWinnerWithCar",
      "outputs": [],
      "stateMutability": "nonpayable",
      "type": "function"
    },
    {
      "inputs": [],
      "name": "getLotteryCount",
      "outputs": [
        {
          "internalType": "uint256",
          "name": "",
          "type": "uint256"
        }
      ],
      "stateMutability": "view",
      "type": "function"
    },
    {
      "inputs": [],
      "name": "withdraw",
      "outputs": [],
      "stateMutability": "payable",
      "type": "function"
    },
    {
      "inputs": [
        {
          "internalType": "string",
          "name": "_name",
          "type": "string"
        }
      ],
      "name": "createRandomCar",
      "outputs": [],
      "stateMutability": "payable",
      "type": "function"
    },
    {
      "inputs": [],
      "name": "getCars",
      "outputs": [
        {
          "components": [
            {
              "internalType": "uint256",
              "name": "id",
              "type": "uint256"
            },
            {
              "internalType": "uint256",
              "name": "vin",
              "type": "uint256"
            },
            {
              "internalType": "string",
              "name": "name",
              "type": "string"
            },
            {
              "internalType": "uint256",
              "name": "enginePower",
              "type": "uint256"
            },
            {
              "internalType": "uint256",
              "name": "aerodynamicStability",
              "type": "uint256"
            },
            {
              "internalType": "uint256",
              "name": "chasis",
              "type": "uint256"
            }
          ],
          "internalType": "struct CarTokens.Car[]",
          "name": "",
          "type": "tuple[]"
        }
      ],
      "stateMutability": "view",
      "type": "function"
    },
    {
      "inputs": [
        {
          "internalType": "address",
          "name": "_owner",
          "type": "address"
        }
      ],
      "name": "getOwnerCars",
      "outputs": [
        {
          "components": [
            {
              "internalType": "uint256",
              "name": "id",
              "type": "uint256"
            },
            {
              "internalType": "uint256",
              "name": "vin",
              "type": "uint256"
            },
            {
              "internalType": "string",
              "name": "name",
              "type": "string"
            },
            {
              "internalType": "uint256",
              "name": "enginePower",
              "type": "uint256"
            },
            {
              "internalType": "uint256",
              "name": "aerodynamicStability",
              "type": "uint256"
            },
            {
              "internalType": "uint256",
              "name": "chasis",
              "type": "uint256"
            }
          ],
          "internalType": "struct CarTokens.Car[]",
          "name": "",
          "type": "tuple[]"
        }
      ],
      "stateMutability": "view",
      "type": "function"
    },
    {
      "inputs": [
        {
          "internalType": "uint256",
          "name": "_carId",
          "type": "uint256"
        }
      ],
      "name": "upgradeEngine",
      "outputs": [],
      "stateMutability": "nonpayable",
      "type": "function"
    },
    {
      "inputs": [
        {
          "internalType": "uint256",
          "name": "_carId",
          "type": "uint256"
        }
      ],
      "name": "upgradeAerodynamicStablity",
      "outputs": [],
      "stateMutability": "nonpayable",
      "type": "function"
    },
    {
      "inputs": [
        {
          "internalType": "uint256",
          "name": "_carId",
          "type": "uint256"
        }
      ],
      "name": "upgradeChasis",
      "outputs": [],
      "stateMutability": "nonpayable",
      "type": "function"
    }
  ],
  "bytecode": "0x6080604052662386f26fc10000600e553480156200001c57600080fd5b5060405162002cdd38038062002cdd8339810160408190526200003f9162000259565b8151829082906200005890600090602085019062000100565b5080516200006e90600190602084019062000100565b5050506200008b62000085620000aa60201b60201c565b620000ae565b5050600780546001600160a01b031916331790556001600c5562000313565b3390565b600680546001600160a01b038381166001600160a01b0319831681179093556040519116919082907f8be0079c531659141344cd1fd0a4f28419497f9722a3daafe3b4186f6b6457e090600090a35050565b8280546200010e90620002c0565b90600052602060002090601f0160209004810192826200013257600085556200017d565b82601f106200014d57805160ff19168380011785556200017d565b828001600101855582156200017d579182015b828111156200017d57825182559160200191906001019062000160565b506200018b9291506200018f565b5090565b5b808211156200018b576000815560010162000190565b600082601f830112620001b7578081fd5b81516001600160401b0380821115620001d457620001d4620002fd565b604051601f8301601f19908116603f01168101908282118183101715620001ff57620001ff620002fd565b816040528381526020925086838588010111156200021b578485fd5b8491505b838210156200023e57858201830151818301840152908201906200021f565b838211156200024f57848385830101525b9695505050505050565b600080604083850312156200026c578182fd5b82516001600160401b038082111562000283578384fd5b6200029186838701620001a6565b93506020850151915080821115620002a7578283fd5b50620002b685828601620001a6565b9150509250929050565b600281046001821680620002d557607f821691505b60208210811415620002f757634e487b7160e01b600052602260045260246000fd5b50919050565b634e487b7160e01b600052604160045260246000fd5b6129ba80620003236000396000f3fe6080604052600436106102255760003560e01c8063715018a611610123578063b5a212e9116100ab578063e985e9c51161006f578063e985e9c5146105e9578063f2fde38b14610609578063f5ee754914610629578063f71d96cb1461063c578063f7746e361461065c57610225565b8063b5a212e914610554578063b88d4fde14610574578063c87b56dd14610594578063d8137166146105b4578063e580f47b146105d457610225565b80638c8fc645116100f25780638c8fc645146104d75780638da5cb5b146104ea578063914fe309146104ff57806395d89b411461051f578063a22cb4651461053457610225565b8063715018a61461046b57806371e8fb57146104805780637f62c5c8146104955780638b5b9ccc146104b557610225565b8063302bcc57116101b15780636352211e116101755780636352211e146103eb57806369fe0e2d1461040b5780636d6fe2301461042b5780636f7c0795146103d657806370a082311461044b57610225565b8063302bcc57146103845780633ccfd60b1461039957806342842e0e146103a15780634c41a689146103c15780635d495aea146103d657610225565b806317c39286116101f857806317c39286146102d157806322af00fa146102f357806323b872dd14610322578063281d098d146103425780632f9aa1fe1461036257610225565b806301ffc9a71461022a57806306fdde0314610260578063081812fc14610282578063095ea7b3146102af575b600080fd5b34801561023657600080fd5b5061024a610245366004612065565b61068e565b60405161025791906122d3565b60405180910390f35b34801561026c57600080fd5b506102756106d6565b60405161025791906122de565b34801561028e57600080fd5b506102a261029d3660046120e3565b610768565b6040516102579190612199565b3480156102bb57600080fd5b506102cf6102ca36600461203c565b6107b4565b005b3480156102dd57600080fd5b506102e661084c565b6040516102579190612237565b3480156102ff57600080fd5b5061031361030e3660046120e3565b61096f565b604051610257939291906127dc565b34801561032e57600080fd5b506102cf61033d366004611f4e565b610999565b34801561034e57600080fd5b506102a261035d3660046120e3565b6109d1565b34801561036e57600080fd5b506103776109ec565b60405161025791906127d3565b34801561039057600080fd5b506103776109f2565b6102cf6109f8565b3480156103ad57600080fd5b506102cf6103bc366004611f4e565b610a7d565b3480156103cd57600080fd5b506102a2610a98565b3480156103e257600080fd5b506102cf610aa7565b3480156103f757600080fd5b506102a26104063660046120e3565b610bf4565b34801561041757600080fd5b506102cf6104263660046120e3565b610c29565b34801561043757600080fd5b506102a26104463660046120e3565b610c6d565b34801561045757600080fd5b50610377610466366004611f02565b610c88565b34801561047757600080fd5b506102cf610ccc565b34801561048c57600080fd5b50610377610d17565b3480156104a157600080fd5b506102cf6104b03660046120e3565b610d1b565b3480156104c157600080fd5b506104ca610d9c565b60405161025791906121ea565b6102cf6104e536600461209d565b610dfd565b3480156104f657600080fd5b506102a2610e2b565b34801561050b57600080fd5b506102e661051a366004611f02565b610e3a565b34801561052b57600080fd5b5061027561102c565b34801561054057600080fd5b506102cf61054f366004612002565b61103b565b34801561056057600080fd5b506102cf61056f3660046120e3565b61104d565b34801561058057600080fd5b506102cf61058f366004611f89565b6110c5565b3480156105a057600080fd5b506102756105af3660046120e3565b611104565b3480156105c057600080fd5b506102cf6105cf3660046120e3565b611187565b3480156105e057600080fd5b506103776111ff565b3480156105f557600080fd5b5061024a610604366004611f1c565b611205565b34801561061557600080fd5b506102cf610624366004611f02565b611233565b6102cf6106373660046120fb565b6112a1565b34801561064857600080fd5b506102a26106573660046120e3565b61137b565b34801561066857600080fd5b5061067c6106773660046120e3565b6113a5565b604051610257969594939291906127fb565b60006001600160e01b031982166380ac58cd60e01b14806106bf57506001600160e01b03198216635b5e139f60e01b145b806106ce57506106ce82611479565b90505b919050565b6060600080546106e5906128c2565b80601f0160208091040260200160405190810160405280929190818152602001828054610711906128c2565b801561075e5780601f106107335761010080835404028352916020019161075e565b820191906000526020600020905b81548152906001019060200180831161074157829003601f168201915b5050505050905090565b600061077382611492565b6107985760405162461bcd60e51b815260040161078f90612648565b60405180910390fd5b506000908152600460205260409020546001600160a01b031690565b60006107bf82610bf4565b9050806001600160a01b0316836001600160a01b031614156107f35760405162461bcd60e51b815260040161078f90612718565b806001600160a01b03166108056114af565b6001600160a01b031614806108215750610821816106046114af565b61083d5760405162461bcd60e51b815260040161078f90612523565b61084783836114b3565b505050565b6060600f805480602002602001604051908101604052809291908181526020016000905b8282101561096657838290600052602060002090600602016040518060c001604052908160008201548152602001600182015481526020016002820180546108b7906128c2565b80601f01602080910402602001604051908101604052809291908181526020018280546108e3906128c2565b80156109305780601f1061090557610100808354040283529160200191610930565b820191906000526020600020905b81548152906001019060200180831161091357829003601f168201915b50505050508152602001600382015481526020016004820154815260200160058201548152505081526020019060010190610870565b50505050905090565b600a6020526000908152604090208054600182015460029092015490916001600160a01b03169083565b6109aa6109a46114af565b82611521565b6109c65760405162461bcd60e51b815260040161078f90612782565b6108478383836115a6565b6000908152600960205260409020546001600160a01b031690565b600c5490565b600b5481565b610a006114af565b6001600160a01b0316610a11610e2b565b6001600160a01b031614610a375760405162461bcd60e51b815260040161078f90612694565b6000610a41610e2b565b6040519091506001600160a01b038216904780156108fc02916000818181858888f19350505050158015610a79573d6000803e3d6000fd5b5050565b610847838383604051806020016040528060008152506110c5565b6007546001600160a01b031681565b610aaf6114af565b6001600160a01b0316610ac0610e2b565b6001600160a01b031614610ae65760405162461bcd60e51b815260040161078f90612694565b600854600090610afc662386f26fc100006116d9565b610b069190612918565b905060088181548110610b2957634e487b7160e01b600052603260045260246000fd5b60009182526020822001546040516001600160a01b03909116914780156108fc02929091818181858888f19350505050158015610b6a573d6000803e3d6000fd5b5060088181548110610b8c57634e487b7160e01b600052603260045260246000fd5b6000918252602080832090910154600c8054845260099092526040832080546001600160a01b0319166001600160a01b03909216919091179055805491610bd2836128fd565b90915550506040805160008152602081019182905251610a7991600891611d51565b6000818152600260205260408120546001600160a01b0316806106ce5760405162461bcd60e51b815260040161078f906125ca565b610c316114af565b6001600160a01b0316610c42610e2b565b6001600160a01b031614610c685760405162461bcd60e51b815260040161078f90612694565b600e55565b6009602052600090815260409020546001600160a01b031681565b60006001600160a01b038216610cb05760405162461bcd60e51b815260040161078f90612580565b506001600160a01b031660009081526003602052604090205490565b610cd46114af565b6001600160a01b0316610ce5610e2b565b6001600160a01b031614610d0b5760405162461bcd60e51b815260040161078f90612694565b610d156000611720565b565b4790565b33610d2582610bf4565b6001600160a01b031614610d4b5760405162461bcd60e51b815260040161078f90612759565b6000600f8281548110610d6e57634e487b7160e01b600052603260045260246000fd5b90600052602060002090600602019050806004016000815480929190610d93906128fd565b91905055505050565b6060600880548060200260200160405190810160405280929190818152602001828054801561075e57602002820191906000526020600020905b81546001600160a01b03168152600190910190602001808311610dd6575050505050905090565b600e54341015610e1f5760405162461bcd60e51b815260040161078f906124ab565b610e2881611772565b50565b6006546001600160a01b031690565b60606000610e4783610c88565b67ffffffffffffffff811115610e6d57634e487b7160e01b600052604160045260246000fd5b604051908082528060200260200182016040528015610ea657816020015b610e93611db6565b815260200190600190039081610e8b5790505b5090506000805b600f5481101561102357846001600160a01b0316610eca82610bf4565b6001600160a01b0316141561101157600f8181548110610efa57634e487b7160e01b600052603260045260246000fd5b90600052602060002090600602016040518060c00160405290816000820154815260200160018201548152602001600282018054610f37906128c2565b80601f0160208091040260200160405190810160405280929190818152602001828054610f63906128c2565b8015610fb05780601f10610f8557610100808354040283529160200191610fb0565b820191906000526020600020905b815481529060010190602001808311610f9357829003601f168201915b505050505081526020016003820154815260200160048201548152602001600582015481525050838381518110610ff757634e487b7160e01b600052603260045260246000fd5b6020026020010181905250818061100d906128fd565b9250505b8061101b816128fd565b915050610ead565b50909392505050565b6060600180546106e5906128c2565b610a796110466114af565b83836118f0565b3361105782610bf4565b6001600160a01b03161461107d5760405162461bcd60e51b815260040161078f90612759565b6000600f82815481106110a057634e487b7160e01b600052603260045260246000fd5b90600052602060002090600602019050806003016000815480929190610d93906128fd565b6110d66110d06114af565b83611521565b6110f25760405162461bcd60e51b815260040161078f90612782565b6110fe84848484611993565b50505050565b606061110f82611492565b61112b5760405162461bcd60e51b815260040161078f906126c9565b60006111356119c6565b905060008151116111555760405180602001604052806000815250611180565b8061115f846119d8565b60405160200161117092919061216a565b6040516020818303038152906040525b9392505050565b3361119182610bf4565b6001600160a01b0316146111b75760405162461bcd60e51b815260040161078f90612759565b6000600f82815481106111da57634e487b7160e01b600052603260045260246000fd5b90600052602060002090600602019050806005016000815480929190610d93906128fd565b600c5481565b6001600160a01b03918216600090815260056020908152604080832093909416825291909152205460ff1690565b61123b6114af565b6001600160a01b031661124c610e2b565b6001600160a01b0316146112725760405162461bcd60e51b815260040161078f90612694565b6001600160a01b0381166112985760405162461bcd60e51b815260040161078f90612343565b610e2881611720565b600e543410156112c35760405162461bcd60e51b815260040161078f90612480565b60408051606081018252838152336020808301918252828401858152600b80546000908152600a9093529482208451815592516001840180546001600160a01b0319166001600160a01b0390921691909117905551600290920191909155825491929061132f836128fd565b9091555050600880546001810182556000919091527ff3f7a9fe364faab93b216da50a3214154f22a0a2b415b23a84c8169e8b636ee30180546001600160a01b03191633179055505050565b6008818154811061138b57600080fd5b6000918252602090912001546001600160a01b0316905081565b600f81815481106113b557600080fd5b90600052602060002090600602016000915090508060000154908060010154908060020180546113e4906128c2565b80601f0160208091040260200160405190810160405280929190818152602001828054611410906128c2565b801561145d5780601f106114325761010080835404028352916020019161145d565b820191906000526020600020905b81548152906001019060200180831161144057829003601f168201915b5050505050908060030154908060040154908060050154905086565b6001600160e01b031981166301ffc9a760e01b14919050565b6000908152600260205260409020546001600160a01b0316151590565b3390565b600081815260046020526040902080546001600160a01b0319166001600160a01b03841690811790915581906114e882610bf4565b6001600160a01b03167f8c5be1e5ebec7d5bd14f71427d1e84f3dd0314c0f7b2291e5b200ac8c7c3b92560405160405180910390a45050565b600061152c82611492565b6115485760405162461bcd60e51b815260040161078f906124d7565b600061155383610bf4565b9050806001600160a01b0316846001600160a01b0316148061157a575061157a8185611205565b8061159e5750836001600160a01b031661159384610768565b6001600160a01b0316145b949350505050565b826001600160a01b03166115b982610bf4565b6001600160a01b0316146115df5760405162461bcd60e51b815260040161078f90612389565b6001600160a01b0382166116055760405162461bcd60e51b815260040161078f90612405565b611610838383610847565b61161b6000826114b3565b6001600160a01b038316600090815260036020526040812080546001929061164490849061287f565b90915550506001600160a01b0382166000908152600360205260408120805460019290611672908490612853565b909155505060008181526002602052604080822080546001600160a01b0319166001600160a01b0386811691821790925591518493918716917fddf252ad1be2c89b69c2b068fc378daa952ba7f163c4a11628f55a4df523b3ef91a4610847838383610847565b60075460405160009182916116fc916001600160a01b0316904290602001612148565b60408051601f19818403018152919052805160209091012090506111808382612918565b600680546001600160a01b038381166001600160a01b0319831681179093556040519116919082907f8be0079c531659141344cd1fd0a4f28419497f9722a3daafe3b4186f6b6457e090600090a35050565b6000611784662386f26fc100006116d9565b6040805160c081018252600d54815260208082018481529282018681526001606084018190526080840181905260a08401819052600f80549182018155600052835160069091027f8d1108e10bcb7c27dddfc02ed9d693a074039d026cf4ea4240b40f7d581ac802810191825594517f8d1108e10bcb7c27dddfc02ed9d693a074039d026cf4ea4240b40f7d581ac80386015590518051959650929485949193611854937f8d1108e10bcb7c27dddfc02ed9d693a074039d026cf4ea4240b40f7d581ac804909301920190611dec565b50606082015181600301556080820151816004015560a08201518160050155505061188133600d54611af3565b336001600160a01b03167f01e07868b1f4e467bdcbf94eb08088b9aec5a391e616922ce9e9051a61026954600d54836060015184608001518560a001516040516118ce9493929190612838565b60405180910390a2600d80549060006118e6836128fd565b9190505550505050565b816001600160a01b0316836001600160a01b031614156119225760405162461bcd60e51b815260040161078f90612449565b6001600160a01b0383811660008181526005602090815260408083209487168084529490915290819020805460ff1916851515179055517f17307eab39ab6107e8899845ad3d59bd9653f200f220920489ca2b5937696c31906119869085906122d3565b60405180910390a3505050565b61199e8484846115a6565b6119aa84848484611b0d565b6110fe5760405162461bcd60e51b815260040161078f906122f1565b60408051602081019091526000815290565b6060816119fd57506040805180820190915260018152600360fc1b60208201526106d1565b8160005b8115611a275780611a11816128fd565b9150611a209050600a8361286b565b9150611a01565b60008167ffffffffffffffff811115611a5057634e487b7160e01b600052604160045260246000fd5b6040519080825280601f01601f191660200182016040528015611a7a576020820181803683370190505b5090505b841561159e57611a8f60018361287f565b9150611a9c600a86612918565b611aa7906030612853565b60f81b818381518110611aca57634e487b7160e01b600052603260045260246000fd5b60200101906001600160f81b031916908160001a905350611aec600a8661286b565b9450611a7e565b610a79828260405180602001604052806000815250611c28565b6000611b21846001600160a01b0316611c5b565b15611c1d57836001600160a01b031663150b7a02611b3d6114af565b8786866040518563ffffffff1660e01b8152600401611b5f94939291906121ad565b602060405180830381600087803b158015611b7957600080fd5b505af1925050508015611ba9575060408051601f3d908101601f19168201909252611ba691810190612081565b60015b611c03573d808015611bd7576040519150601f19603f3d011682016040523d82523d6000602084013e611bdc565b606091505b508051611bfb5760405162461bcd60e51b815260040161078f906122f1565b805181602001fd5b6001600160e01b031916630a85bd0160e11b14905061159e565b506001949350505050565b611c328383611c6a565b611c3f6000848484611b0d565b6108475760405162461bcd60e51b815260040161078f906122f1565b6001600160a01b03163b151590565b6001600160a01b038216611c905760405162461bcd60e51b815260040161078f90612613565b611c9981611492565b15611cb65760405162461bcd60e51b815260040161078f906123ce565b611cc260008383610847565b6001600160a01b0382166000908152600360205260408120805460019290611ceb908490612853565b909155505060008181526002602052604080822080546001600160a01b0319166001600160a01b03861690811790915590518392907fddf252ad1be2c89b69c2b068fc378daa952ba7f163c4a11628f55a4df523b3ef908290a4610a7960008383610847565b828054828255906000526020600020908101928215611da6579160200282015b82811115611da657825182546001600160a01b0319166001600160a01b03909116178255602090920191600190910190611d71565b50611db2929150611e60565b5090565b6040518060c001604052806000815260200160008152602001606081526020016000815260200160008152602001600081525090565b828054611df8906128c2565b90600052602060002090601f016020900481019282611e1a5760008555611da6565b82601f10611e3357805160ff1916838001178555611da6565b82800160010185558215611da6579182015b82811115611da6578251825591602001919060010190611e45565b5b80821115611db25760008155600101611e61565b600067ffffffffffffffff80841115611e9057611e90612958565b604051601f8501601f19908116603f01168101908282118183101715611eb857611eb8612958565b81604052809350858152868686011115611ed157600080fd5b858560208301376000602087830101525050509392505050565b80356001600160a01b03811681146106d157600080fd5b600060208284031215611f13578081fd5b61118082611eeb565b60008060408385031215611f2e578081fd5b611f3783611eeb565b9150611f4560208401611eeb565b90509250929050565b600080600060608486031215611f62578081fd5b611f6b84611eeb565b9250611f7960208501611eeb565b9150604084013590509250925092565b60008060008060808587031215611f9e578081fd5b611fa785611eeb565b9350611fb560208601611eeb565b925060408501359150606085013567ffffffffffffffff811115611fd7578182fd5b8501601f81018713611fe7578182fd5b611ff687823560208401611e75565b91505092959194509250565b60008060408385031215612014578182fd5b61201d83611eeb565b915060208301358015158114612031578182fd5b809150509250929050565b6000806040838503121561204e578182fd5b61205783611eeb565b946020939093013593505050565b600060208284031215612076578081fd5b81356111808161296e565b600060208284031215612092578081fd5b81516111808161296e565b6000602082840312156120ae578081fd5b813567ffffffffffffffff8111156120c4578182fd5b8201601f810184136120d4578182fd5b61159e84823560208401611e75565b6000602082840312156120f4578081fd5b5035919050565b6000806040838503121561210d578182fd5b50508035926020909101359150565b60008151808452612134816020860160208601612896565b601f01601f19169290920160200192915050565b60609290921b6bffffffffffffffffffffffff19168252601482015260340190565b6000835161217c818460208801612896565b835190830190612190818360208801612896565b01949350505050565b6001600160a01b0391909116815260200190565b6001600160a01b03858116825284166020820152604081018390526080606082018190526000906121e09083018461211c565b9695505050505050565b6020808252825182820181905260009190848201906040850190845b8181101561222b5783516001600160a01b031683529284019291840191600101612206565b50909695505050505050565b60208082528251828201819052600091906040908185019080840286018301878501865b838110156122c557603f19898403018552815160c08151855288820151898601528782015181898701526122918287018261211c565b606084810151908801526080808501519088015260a09384015193909601929092525050938601939086019060010161225b565b509098975050505050505050565b901515815260200190565b600060208252611180602083018461211c565b60208082526032908201527f4552433732313a207472616e7366657220746f206e6f6e20455243373231526560408201527131b2b4bb32b91034b6b83632b6b2b73a32b960711b606082015260800190565b60208082526026908201527f4f776e61626c653a206e6577206f776e657220697320746865207a65726f206160408201526564647265737360d01b606082015260800190565b60208082526025908201527f4552433732313a207472616e736665722066726f6d20696e636f72726563742060408201526437bbb732b960d91b606082015260800190565b6020808252601c908201527f4552433732313a20746f6b656e20616c7265616479206d696e74656400000000604082015260600190565b60208082526024908201527f4552433732313a207472616e7366657220746f20746865207a65726f206164646040820152637265737360e01b606082015260800190565b60208082526019908201527f4552433732313a20617070726f766520746f2063616c6c657200000000000000604082015260600190565b6020808252601190820152704e6f7420656e6f7567682065746865727360781b604082015260600190565b602080825260129082015271119959481a5cc81b9bdd0818dbdc9c9958dd60721b604082015260600190565b6020808252602c908201527f4552433732313a206f70657261746f7220717565727920666f72206e6f6e657860408201526b34b9ba32b73a103a37b5b2b760a11b606082015260800190565b60208082526038908201527f4552433732313a20617070726f76652063616c6c6572206973206e6f74206f7760408201527f6e6572206e6f7220617070726f76656420666f7220616c6c0000000000000000606082015260800190565b6020808252602a908201527f4552433732313a2062616c616e636520717565727920666f7220746865207a65604082015269726f206164647265737360b01b606082015260800190565b60208082526029908201527f4552433732313a206f776e657220717565727920666f72206e6f6e657869737460408201526832b73a103a37b5b2b760b91b606082015260800190565b6020808252818101527f4552433732313a206d696e7420746f20746865207a65726f2061646472657373604082015260600190565b6020808252602c908201527f4552433732313a20617070726f76656420717565727920666f72206e6f6e657860408201526b34b9ba32b73a103a37b5b2b760a11b606082015260800190565b6020808252818101527f4f776e61626c653a2063616c6c6572206973206e6f7420746865206f776e6572604082015260600190565b6020808252602f908201527f4552433732314d657461646174613a2055524920717565727920666f72206e6f60408201526e3732bc34b9ba32b73a103a37b5b2b760891b606082015260800190565b60208082526021908201527f4552433732313a20617070726f76616c20746f2063757272656e74206f776e656040820152603960f91b606082015260800190565b6020808252600f908201526e165bdd481b5d5cdd081bdddb881a5d608a1b604082015260600190565b60208082526031908201527f4552433732313a207472616e736665722063616c6c6572206973206e6f74206f6040820152701ddb995c881b9bdc88185c1c1c9bdd9959607a1b606082015260800190565b90815260200190565b9283526001600160a01b03919091166020830152604082015260600190565b600087825286602083015260c0604083015261281a60c083018761211c565b606083019590955250608081019290925260a0909101529392505050565b93845260208401929092526040830152606082015260800190565b600082198211156128665761286661292c565b500190565b60008261287a5761287a612942565b500490565b6000828210156128915761289161292c565b500390565b60005b838110156128b1578181015183820152602001612899565b838111156110fe5750506000910152565b6002810460018216806128d657607f821691505b602082108114156128f757634e487b7160e01b600052602260045260246000fd5b50919050565b60006000198214156129115761291161292c565b5060010190565b60008261292757612927612942565b500690565b634e487b7160e01b600052601160045260246000fd5b634e487b7160e01b600052601260045260246000fd5b634e487b7160e01b600052604160045260246000fd5b6001600160e01b031981168114610e2857600080fdfea26469706673582212205022ba45eb615982ab8b5438d5600683e29166e9ef3d427c0bb2affea502847164736f6c63430008010033",
  "immutableReferences": {},
  "source": "// SPDX-License-Identifier: MIT\r\npragma solidity ^0.8.0;\r\n\r\nimport \"@openzeppelin/contracts/token/ERC721/ERC721.sol\";\r\nimport \"@openzeppelin/contracts/access/Ownable.sol\";\r\n\r\ncontract CarTokens is ERC721, Ownable {\r\n    //Betting \r\n    address public _owner_;\r\n    address payable[] public players;\r\n    mapping (uint => address payable) public lotteryHistory;\r\n    mapping(uint => Bet) public bets;\r\n    uint public playerCount;\r\n    uint public lotteryId;\r\n\r\n    //Token\r\n    uint256 tokenCount;\r\n    uint256 fee = 0.01 ether; \r\n    \r\n    struct Car{\r\n        uint256 id;\r\n        uint256 vin;    //Vehicle identification number\r\n        string name;\r\n        uint256 enginePower;\r\n        uint256 aerodynamicStability;\r\n        uint256 chasis;\r\n    }\r\n\r\n    struct Bet{\r\n        uint256 carId;\r\n        address player;\r\n        uint256 betAmount;\r\n    }\r\n\r\n    Car[] public cars;\r\n\r\n    event NewCar(address indexed owner, uint256 id, uint256 enginePower, uint256 aerodynamicStability, uint256 chasis);\r\n\r\n    constructor(string memory _name, string memory _symbol)\r\n        ERC721(_name, _symbol)\r\n    {\r\n        _owner_ = msg.sender;\r\n        lotteryId = 1;\r\n    }\r\n    \r\n    //Common functions\r\n    function _createRandomNumber(uint256 _mod) internal view returns(uint256){\r\n        uint256 randomNum = uint256(keccak256(abi.encodePacked(_owner_, block.timestamp)));\r\n        return randomNum % _mod;\r\n    }\r\n\r\n    function setFee(uint256 _fee) external onlyOwner() {\r\n        fee = _fee;\r\n    }\r\n    \r\n    //Betting Functions\r\n    function getWinnerByLottery(uint lottery) public view returns(address payable){\r\n        return lotteryHistory[lottery];\r\n    }\r\n\r\n    function getPotBalance() public view returns(uint){\r\n        return address(this).balance;\r\n    }\r\n\r\n    function getPlayers() public view returns(address payable[] memory){\r\n        return players;\r\n    }\r\n\r\n    function enterWithCar(uint256 _carId, uint256 _betAmount) public payable {\r\n        require(msg.value >= fee, \"Not enough ethers\");\r\n        //Address of player entering lottery\r\n        Bet memory bet = Bet(_carId, msg.sender, _betAmount);\r\n        bets[playerCount] = bet;\r\n        playerCount++;\r\n        players.push(payable(msg.sender));\r\n    }\r\n\r\n    function pickWinner() public onlyOwner {\r\n        uint index = _createRandomNumber(10**16) % players.length;\r\n        players[index].transfer(address(this).balance);\r\n\r\n        lotteryHistory[lotteryId] = players[index];\r\n        lotteryId++;\r\n        //Reset array for next round\r\n        players = new address payable[](0);\r\n    }\r\n\r\n    function pickWinnerWithCar() public onlyOwner {\r\n        uint index = _createRandomNumber(10**16) % players.length;\r\n        players[index].transfer(address(this).balance);\r\n\r\n        lotteryHistory[lotteryId] = players[index];\r\n        lotteryId++;\r\n        //Reset array for next round\r\n        players = new address payable[](0);\r\n    }\r\n\r\n    function getLotteryCount() public view returns(uint){\r\n        return lotteryId;\r\n    }\r\n \r\n    //Token Functions\r\n    function withdraw() external payable onlyOwner() {\r\n        address payable _owner = payable(owner());\r\n        _owner.transfer(address(this).balance);\r\n    }\r\n\r\n    //Create car\r\n    function _createCar(string memory _name) internal{\r\n        uint256 vin = _createRandomNumber(10**16);\r\n        Car memory car = Car(tokenCount, vin, _name, 1, 1, 1);\r\n        cars.push(car);\r\n        _safeMint(msg.sender, tokenCount);\r\n        emit NewCar(msg.sender, tokenCount, car.enginePower, car.aerodynamicStability, car.chasis);\r\n        tokenCount++;\r\n    }\r\n\r\n    function createRandomCar(string memory _name) public payable {\r\n        require(msg.value >= fee, \"Fee is not correct\");\r\n        _createCar(_name);\r\n    } \r\n    \r\n    function getCars() public view returns(Car[] memory){\r\n        return cars;\r\n    }\r\n\r\n    function getOwnerCars(address _owner) public view returns(Car[] memory){\r\n        Car[] memory result = new Car[](balanceOf(_owner));\r\n        uint256 counter = 0;\r\n        for(uint256 i=0; i<cars.length; i++){\r\n            if(ownerOf(i) == _owner){\r\n                result[counter] = cars[i];\r\n                counter++;\r\n            }\r\n        }\r\n        return result;\r\n    }\r\n\r\n    function upgradeEngine(uint256 _carId) public {\r\n        require(ownerOf(_carId) == msg.sender, \"You must own it\");\r\n        Car storage car = cars[_carId];\r\n        car.enginePower++;\r\n    }\r\n\r\n    function upgradeAerodynamicStablity(uint256 _carId) public {\r\n        require(ownerOf(_carId) == msg.sender, \"You must own it\");\r\n        Car storage car = cars[_carId];\r\n        car.aerodynamicStability++;\r\n    }\r\n\r\n    function upgradeChasis(uint256 _carId) public {\r\n        require(ownerOf(_carId) == msg.sender, \"You must own it\");\r\n        Car storage car = cars[_carId];\r\n        car.chasis++;\r\n    }\r\n\r\n}",
  "sourcePath": "C:\\Users\\mmbat\\Desktop\\nft\\123\\nft\\contracts\\Tok.sol",
  "compiler": {
    "name": "solc",
    "version": "0.8.1+commit.df193b15.Emscripten.clang"
  },
  "schemaVersion": "3.4.7",
  "updatedAt": "2022-06-07T21:28:03.707Z",
  "devdoc": {
    "kind": "dev",
    "methods": {
      "approve(address,uint256)": {
        "details": "See {IERC721-approve}."
      },
      "balanceOf(address)": {
        "details": "See {IERC721-balanceOf}."
      },
      "getApproved(uint256)": {
        "details": "See {IERC721-getApproved}."
      },
      "isApprovedForAll(address,address)": {
        "details": "See {IERC721-isApprovedForAll}."
      },
      "name()": {
        "details": "See {IERC721Metadata-name}."
      },
      "owner()": {
        "details": "Returns the address of the current owner."
      },
      "ownerOf(uint256)": {
        "details": "See {IERC721-ownerOf}."
      },
      "renounceOwnership()": {
        "details": "Leaves the contract without owner. It will not be possible to call `onlyOwner` functions anymore. Can only be called by the current owner. NOTE: Renouncing ownership will leave the contract without an owner, thereby removing any functionality that is only available to the owner."
      },
      "safeTransferFrom(address,address,uint256)": {
        "details": "See {IERC721-safeTransferFrom}."
      },
      "safeTransferFrom(address,address,uint256,bytes)": {
        "details": "See {IERC721-safeTransferFrom}."
      },
      "setApprovalForAll(address,bool)": {
        "details": "See {IERC721-setApprovalForAll}."
      },
      "supportsInterface(bytes4)": {
        "details": "See {IERC165-supportsInterface}."
      },
      "symbol()": {
        "details": "See {IERC721Metadata-symbol}."
      },
      "tokenURI(uint256)": {
        "details": "See {IERC721Metadata-tokenURI}."
      },
      "transferFrom(address,address,uint256)": {
        "details": "See {IERC721-transferFrom}."
      },
      "transferOwnership(address)": {
        "details": "Transfers ownership of the contract to a new account (`newOwner`). Can only be called by the current owner."
      }
    },
    "version": 1
  },
  "userdoc": {
    "kind": "user",
    "methods": {},
    "version": 1
  }
}