{
  "contractName": "CarToken",
  "abi": [
    {
      "inputs": [
        {
          "internalType": "string",
          "name": "_name",
          "type": "string"
        },
        {
          "internalType": "string",
          "name": "_symbol",
          "type": "string"
        }
      ],
      "stateMutability": "nonpayable",
      "type": "constructor"
    },
    {
      "anonymous": false,
      "inputs": [
        {
          "indexed": true,
          "internalType": "address",
          "name": "owner",
          "type": "address"
        },
        {
          "indexed": true,
          "internalType": "address",
          "name": "approved",
          "type": "address"
        },
        {
          "indexed": true,
          "internalType": "uint256",
          "name": "tokenId",
          "type": "uint256"
        }
      ],
      "name": "Approval",
      "type": "event"
    },
    {
      "anonymous": false,
      "inputs": [
        {
          "indexed": true,
          "internalType": "address",
          "name": "owner",
          "type": "address"
        },
        {
          "indexed": true,
          "internalType": "address",
          "name": "operator",
          "type": "address"
        },
        {
          "indexed": false,
          "internalType": "bool",
          "name": "approved",
          "type": "bool"
        }
      ],
      "name": "ApprovalForAll",
      "type": "event"
    },
    {
      "anonymous": false,
      "inputs": [
        {
          "indexed": true,
          "internalType": "address",
          "name": "owner",
          "type": "address"
        },
        {
          "indexed": false,
          "internalType": "uint256",
          "name": "id",
          "type": "uint256"
        },
        {
          "indexed": false,
          "internalType": "uint256",
          "name": "enginePower",
          "type": "uint256"
        },
        {
          "indexed": false,
          "internalType": "uint256",
          "name": "aerodynamicStability",
          "type": "uint256"
        },
        {
          "indexed": false,
          "internalType": "uint256",
          "name": "chasis",
          "type": "uint256"
        }
      ],
      "name": "NewCar",
      "type": "event"
    },
    {
      "anonymous": false,
      "inputs": [
        {
          "indexed": true,
          "internalType": "address",
          "name": "previousOwner",
          "type": "address"
        },
        {
          "indexed": true,
          "internalType": "address",
          "name": "newOwner",
          "type": "address"
        }
      ],
      "name": "OwnershipTransferred",
      "type": "event"
    },
    {
      "anonymous": false,
      "inputs": [
        {
          "indexed": true,
          "internalType": "address",
          "name": "from",
          "type": "address"
        },
        {
          "indexed": true,
          "internalType": "address",
          "name": "to",
          "type": "address"
        },
        {
          "indexed": true,
          "internalType": "uint256",
          "name": "tokenId",
          "type": "uint256"
        }
      ],
      "name": "Transfer",
      "type": "event"
    },
    {
      "inputs": [],
      "name": "_owner_",
      "outputs": [
        {
          "internalType": "address",
          "name": "",
          "type": "address"
        }
      ],
      "stateMutability": "view",
      "type": "function",
      "constant": true
    },
    {
      "inputs": [
        {
          "internalType": "uint256",
          "name": "",
          "type": "uint256"
        }
      ],
      "name": "amounts",
      "outputs": [
        {
          "internalType": "uint256",
          "name": "",
          "type": "uint256"
        }
      ],
      "stateMutability": "view",
      "type": "function",
      "constant": true
    },
    {
      "inputs": [
        {
          "internalType": "address",
          "name": "to",
          "type": "address"
        },
        {
          "internalType": "uint256",
          "name": "tokenId",
          "type": "uint256"
        }
      ],
      "name": "approve",
      "outputs": [],
      "stateMutability": "nonpayable",
      "type": "function"
    },
    {
      "inputs": [
        {
          "internalType": "address",
          "name": "owner",
          "type": "address"
        }
      ],
      "name": "balanceOf",
      "outputs": [
        {
          "internalType": "uint256",
          "name": "",
          "type": "uint256"
        }
      ],
      "stateMutability": "view",
      "type": "function",
      "constant": true
    },
    {
      "inputs": [
        {
          "internalType": "uint256",
          "name": "",
          "type": "uint256"
        }
      ],
      "name": "cars",
      "outputs": [
        {
          "internalType": "uint256",
          "name": "id",
          "type": "uint256"
        },
        {
          "internalType": "uint256",
          "name": "vin",
          "type": "uint256"
        },
        {
          "internalType": "string",
          "name": "name",
          "type": "string"
        },
        {
          "internalType": "uint256",
          "name": "enginePower",
          "type": "uint256"
        },
        {
          "internalType": "uint256",
          "name": "aerodynamicStability",
          "type": "uint256"
        },
        {
          "internalType": "uint256",
          "name": "chasis",
          "type": "uint256"
        }
      ],
      "stateMutability": "view",
      "type": "function",
      "constant": true
    },
    {
      "inputs": [
        {
          "internalType": "uint256",
          "name": "tokenId",
          "type": "uint256"
        }
      ],
      "name": "getApproved",
      "outputs": [
        {
          "internalType": "address",
          "name": "",
          "type": "address"
        }
      ],
      "stateMutability": "view",
      "type": "function",
      "constant": true
    },
    {
      "inputs": [
        {
          "internalType": "uint256",
          "name": "",
          "type": "uint256"
        }
      ],
      "name": "ids",
      "outputs": [
        {
          "internalType": "uint256",
          "name": "",
          "type": "uint256"
        }
      ],
      "stateMutability": "view",
      "type": "function",
      "constant": true
    },
    {
      "inputs": [
        {
          "internalType": "address",
          "name": "owner",
          "type": "address"
        },
        {
          "internalType": "address",
          "name": "operator",
          "type": "address"
        }
      ],
      "name": "isApprovedForAll",
      "outputs": [
        {
          "internalType": "bool",
          "name": "",
          "type": "bool"
        }
      ],
      "stateMutability": "view",
      "type": "function",
      "constant": true
    },
    {
      "inputs": [
        {
          "internalType": "uint256",
          "name": "",
          "type": "uint256"
        }
      ],
      "name": "lotteryHistory",
      "outputs": [
        {
          "components": [
            {
              "internalType": "uint256",
              "name": "id",
              "type": "uint256"
            },
            {
              "internalType": "uint256",
              "name": "vin",
              "type": "uint256"
            },
            {
              "internalType": "string",
              "name": "name",
              "type": "string"
            },
            {
              "internalType": "uint256",
              "name": "enginePower",
              "type": "uint256"
            },
            {
              "internalType": "uint256",
              "name": "aerodynamicStability",
              "type": "uint256"
            },
            {
              "internalType": "uint256",
              "name": "chasis",
              "type": "uint256"
            }
          ],
          "internalType": "struct CarToken.Car",
          "name": "car",
          "type": "tuple"
        },
        {
          "internalType": "address payable",
          "name": "player",
          "type": "address"
        },
        {
          "internalType": "uint256",
          "name": "betAmount",
          "type": "uint256"
        }
      ],
      "stateMutability": "view",
      "type": "function",
      "constant": true
    },
    {
      "inputs": [],
      "name": "lotteryId",
      "outputs": [
        {
          "internalType": "uint256",
          "name": "",
          "type": "uint256"
        }
      ],
      "stateMutability": "view",
      "type": "function",
      "constant": true
    },
    {
      "inputs": [],
      "name": "name",
      "outputs": [
        {
          "internalType": "string",
          "name": "",
          "type": "string"
        }
      ],
      "stateMutability": "view",
      "type": "function",
      "constant": true
    },
    {
      "inputs": [],
      "name": "owner",
      "outputs": [
        {
          "internalType": "address",
          "name": "",
          "type": "address"
        }
      ],
      "stateMutability": "view",
      "type": "function",
      "constant": true
    },
    {
      "inputs": [
        {
          "internalType": "uint256",
          "name": "tokenId",
          "type": "uint256"
        }
      ],
      "name": "ownerOf",
      "outputs": [
        {
          "internalType": "address",
          "name": "",
          "type": "address"
        }
      ],
      "stateMutability": "view",
      "type": "function",
      "constant": true
    },
    {
      "inputs": [],
      "name": "playerCount",
      "outputs": [
        {
          "internalType": "uint256",
          "name": "",
          "type": "uint256"
        }
      ],
      "stateMutability": "view",
      "type": "function",
      "constant": true
    },
    {
      "inputs": [
        {
          "internalType": "uint256",
          "name": "",
          "type": "uint256"
        }
      ],
      "name": "players",
      "outputs": [
        {
          "internalType": "address payable",
          "name": "",
          "type": "address"
        }
      ],
      "stateMutability": "view",
      "type": "function",
      "constant": true
    },
    {
      "inputs": [],
      "name": "renounceOwnership",
      "outputs": [],
      "stateMutability": "nonpayable",
      "type": "function"
    },
    {
      "inputs": [
        {
          "internalType": "address",
          "name": "from",
          "type": "address"
        },
        {
          "internalType": "address",
          "name": "to",
          "type": "address"
        },
        {
          "internalType": "uint256",
          "name": "tokenId",
          "type": "uint256"
        }
      ],
      "name": "safeTransferFrom",
      "outputs": [],
      "stateMutability": "nonpayable",
      "type": "function"
    },
    {
      "inputs": [
        {
          "internalType": "address",
          "name": "from",
          "type": "address"
        },
        {
          "internalType": "address",
          "name": "to",
          "type": "address"
        },
        {
          "internalType": "uint256",
          "name": "tokenId",
          "type": "uint256"
        },
        {
          "internalType": "bytes",
          "name": "_data",
          "type": "bytes"
        }
      ],
      "name": "safeTransferFrom",
      "outputs": [],
      "stateMutability": "nonpayable",
      "type": "function"
    },
    {
      "inputs": [
        {
          "internalType": "address",
          "name": "operator",
          "type": "address"
        },
        {
          "internalType": "bool",
          "name": "approved",
          "type": "bool"
        }
      ],
      "name": "setApprovalForAll",
      "outputs": [],
      "stateMutability": "nonpayable",
      "type": "function"
    },
    {
      "inputs": [
        {
          "internalType": "bytes4",
          "name": "interfaceId",
          "type": "bytes4"
        }
      ],
      "name": "supportsInterface",
      "outputs": [
        {
          "internalType": "bool",
          "name": "",
          "type": "bool"
        }
      ],
      "stateMutability": "view",
      "type": "function",
      "constant": true
    },
    {
      "inputs": [],
      "name": "symbol",
      "outputs": [
        {
          "internalType": "string",
          "name": "",
          "type": "string"
        }
      ],
      "stateMutability": "view",
      "type": "function",
      "constant": true
    },
    {
      "inputs": [
        {
          "internalType": "uint256",
          "name": "tokenId",
          "type": "uint256"
        }
      ],
      "name": "tokenURI",
      "outputs": [
        {
          "internalType": "string",
          "name": "",
          "type": "string"
        }
      ],
      "stateMutability": "view",
      "type": "function",
      "constant": true
    },
    {
      "inputs": [
        {
          "internalType": "address",
          "name": "from",
          "type": "address"
        },
        {
          "internalType": "address",
          "name": "to",
          "type": "address"
        },
        {
          "internalType": "uint256",
          "name": "tokenId",
          "type": "uint256"
        }
      ],
      "name": "transferFrom",
      "outputs": [],
      "stateMutability": "nonpayable",
      "type": "function"
    },
    {
      "inputs": [
        {
          "internalType": "address",
          "name": "newOwner",
          "type": "address"
        }
      ],
      "name": "transferOwnership",
      "outputs": [],
      "stateMutability": "nonpayable",
      "type": "function"
    },
    {
      "inputs": [
        {
          "internalType": "uint256",
          "name": "_fee",
          "type": "uint256"
        }
      ],
      "name": "setFee",
      "outputs": [],
      "stateMutability": "nonpayable",
      "type": "function"
    },
    {
      "inputs": [
        {
          "internalType": "uint256",
          "name": "lottery",
          "type": "uint256"
        }
      ],
      "name": "getWinnerByLottery",
      "outputs": [
        {
          "components": [
            {
              "components": [
                {
                  "internalType": "uint256",
                  "name": "id",
                  "type": "uint256"
                },
                {
                  "internalType": "uint256",
                  "name": "vin",
                  "type": "uint256"
                },
                {
                  "internalType": "string",
                  "name": "name",
                  "type": "string"
                },
                {
                  "internalType": "uint256",
                  "name": "enginePower",
                  "type": "uint256"
                },
                {
                  "internalType": "uint256",
                  "name": "aerodynamicStability",
                  "type": "uint256"
                },
                {
                  "internalType": "uint256",
                  "name": "chasis",
                  "type": "uint256"
                }
              ],
              "internalType": "struct CarToken.Car",
              "name": "car",
              "type": "tuple"
            },
            {
              "internalType": "address payable",
              "name": "player",
              "type": "address"
            },
            {
              "internalType": "uint256",
              "name": "betAmount",
              "type": "uint256"
            }
          ],
          "internalType": "struct CarToken.Bet",
          "name": "bet",
          "type": "tuple"
        }
      ],
      "stateMutability": "view",
      "type": "function",
      "constant": true
    },
    {
      "inputs": [],
      "name": "getPotBalance",
      "outputs": [
        {
          "internalType": "uint256",
          "name": "",
          "type": "uint256"
        }
      ],
      "stateMutability": "view",
      "type": "function",
      "constant": true
    },
    {
      "inputs": [],
      "name": "getPlayers",
      "outputs": [
        {
          "internalType": "address payable[]",
          "name": "",
          "type": "address[]"
        }
      ],
      "stateMutability": "view",
      "type": "function",
      "constant": true
    },
    {
      "inputs": [
        {
          "internalType": "uint256",
          "name": "_carId",
          "type": "uint256"
        },
        {
          "internalType": "uint256",
          "name": "_betAmount",
          "type": "uint256"
        }
      ],
      "name": "enterWithCar",
      "outputs": [],
      "stateMutability": "payable",
      "type": "function",
      "payable": true
    },
    {
      "inputs": [],
      "name": "pickWinner",
      "outputs": [],
      "stateMutability": "nonpayable",
      "type": "function"
    },
    {
      "inputs": [],
      "name": "getLotteryCount",
      "outputs": [
        {
          "internalType": "uint256",
          "name": "",
          "type": "uint256"
        }
      ],
      "stateMutability": "view",
      "type": "function",
      "constant": true
    },
    {
      "inputs": [],
      "name": "withdraw",
      "outputs": [],
      "stateMutability": "payable",
      "type": "function",
      "payable": true
    },
    {
      "inputs": [
        {
          "internalType": "string",
          "name": "_name",
          "type": "string"
        }
      ],
      "name": "createRandomCar",
      "outputs": [],
      "stateMutability": "payable",
      "type": "function",
      "payable": true
    },
    {
      "inputs": [],
      "name": "getCars",
      "outputs": [
        {
          "components": [
            {
              "internalType": "uint256",
              "name": "id",
              "type": "uint256"
            },
            {
              "internalType": "uint256",
              "name": "vin",
              "type": "uint256"
            },
            {
              "internalType": "string",
              "name": "name",
              "type": "string"
            },
            {
              "internalType": "uint256",
              "name": "enginePower",
              "type": "uint256"
            },
            {
              "internalType": "uint256",
              "name": "aerodynamicStability",
              "type": "uint256"
            },
            {
              "internalType": "uint256",
              "name": "chasis",
              "type": "uint256"
            }
          ],
          "internalType": "struct CarToken.Car[]",
          "name": "",
          "type": "tuple[]"
        }
      ],
      "stateMutability": "view",
      "type": "function",
      "constant": true
    },
    {
      "inputs": [
        {
          "internalType": "address",
          "name": "_owner",
          "type": "address"
        }
      ],
      "name": "getOwnerCars",
      "outputs": [
        {
          "components": [
            {
              "internalType": "uint256",
              "name": "id",
              "type": "uint256"
            },
            {
              "internalType": "uint256",
              "name": "vin",
              "type": "uint256"
            },
            {
              "internalType": "string",
              "name": "name",
              "type": "string"
            },
            {
              "internalType": "uint256",
              "name": "enginePower",
              "type": "uint256"
            },
            {
              "internalType": "uint256",
              "name": "aerodynamicStability",
              "type": "uint256"
            },
            {
              "internalType": "uint256",
              "name": "chasis",
              "type": "uint256"
            }
          ],
          "internalType": "struct CarToken.Car[]",
          "name": "",
          "type": "tuple[]"
        }
      ],
      "stateMutability": "view",
      "type": "function",
      "constant": true
    },
    {
      "inputs": [
        {
          "internalType": "uint256",
          "name": "_carId",
          "type": "uint256"
        }
      ],
      "name": "upgradeEngine",
      "outputs": [],
      "stateMutability": "nonpayable",
      "type": "function"
    },
    {
      "inputs": [
        {
          "internalType": "uint256",
          "name": "_carId",
          "type": "uint256"
        }
      ],
      "name": "upgradeAerodynamicStablity",
      "outputs": [],
      "stateMutability": "nonpayable",
      "type": "function"
    },
    {
      "inputs": [
        {
          "internalType": "uint256",
          "name": "_carId",
          "type": "uint256"
        }
      ],
      "name": "upgradeChasis",
      "outputs": [],
      "stateMutability": "nonpayable",
      "type": "function"
    }
  ],
  "bytecode": "0x6080604052662386f26fc10000600f553480156200001c57600080fd5b50604051620031dc380380620031dc8339810160408190526200003f916200025e565b8151829082906200005890600090602085019062000105565b5080516200006e90600190602084019062000105565b5050506200008b62000085620000af60201b60201c565b620000b3565b5050600780546001600160a01b031916331790556001600c556000600d5562000318565b3390565b600680546001600160a01b038381166001600160a01b0319831681179093556040519116919082907f8be0079c531659141344cd1fd0a4f28419497f9722a3daafe3b4186f6b6457e090600090a35050565b8280546200011390620002c5565b90600052602060002090601f01602090048101928262000137576000855562000182565b82601f106200015257805160ff191683800117855562000182565b8280016001018555821562000182579182015b828111156200018257825182559160200191906001019062000165565b506200019092915062000194565b5090565b5b8082111562000190576000815560010162000195565b600082601f830112620001bc578081fd5b81516001600160401b0380821115620001d957620001d962000302565b604051601f8301601f19908116603f0116810190828211818310171562000204576200020462000302565b8160405283815260209250868385880101111562000220578485fd5b8491505b8382101562000243578582018301518183018401529082019062000224565b838211156200025457848385830101525b9695505050505050565b6000806040838503121562000271578182fd5b82516001600160401b038082111562000288578384fd5b6200029686838701620001ab565b93506020850151915080821115620002ac578283fd5b50620002bb85828601620001ab565b9150509250929050565b600281046001821680620002da57607f821691505b60208210811415620002fc57634e487b7160e01b600052602260045260246000fd5b50919050565b634e487b7160e01b600052604160045260246000fd5b612eb480620003286000396000f3fe6080604052600436106102255760003560e01c806371e8fb5711610123578063b88d4fde116100ab578063f2fde38b1161006f578063f2fde38b14610616578063f5ee754914610636578063f71d96cb14610649578063f7746e3614610669578063fac333ac1461069b57610225565b8063b88d4fde14610581578063c87b56dd146105a1578063d8137166146105c1578063e580f47b146105e1578063e985e9c5146105f657610225565b80638da5cb5b116100f25780638da5cb5b146104f7578063914fe3091461050c57806395d89b411461052c578063a22cb46514610541578063b5a212e91461056157610225565b806371e8fb571461048d5780637f62c5c8146104a25780638b5b9ccc146104c25780638c8fc645146104e457610225565b80633ccfd60b116101b15780636352211e116101755780636352211e146103e957806369fe0e2d146104095780636d6fe2301461042957806370a0823114610458578063715018a61461047857610225565b80633ccfd60b1461037757806342842e0e1461037f57806345f0a44f1461039f5780634c41a689146103bf5780635d495aea146103d457610225565b806317c39286116101f857806317c39286146102d157806323b872dd146102f3578063281d098d146103135780632f9aa1fe14610340578063302bcc571461036257610225565b806301ffc9a71461022a57806306fdde0314610260578063081812fc14610282578063095ea7b3146102af575b600080fd5b34801561023657600080fd5b5061024a6102453660046124f2565b6106bb565b6040516102579190612777565b60405180910390f35b34801561026c57600080fd5b50610275610703565b6040516102579190612782565b34801561028e57600080fd5b506102a261029d366004612570565b610795565b6040516102579190612679565b3480156102bb57600080fd5b506102cf6102ca3660046124c9565b6107e1565b005b3480156102dd57600080fd5b506102e6610879565b6040516102579190612717565b3480156102ff57600080fd5b506102cf61030e3660046123db565b61099c565b34801561031f57600080fd5b5061033361032e366004612570565b6109d4565b6040516102579190612c77565b34801561034c57600080fd5b50610355610b07565b6040516102579190612cec565b34801561036e57600080fd5b50610355610b0d565b6102cf610b13565b34801561038b57600080fd5b506102cf61039a3660046123db565b610b98565b3480156103ab57600080fd5b506103556103ba366004612570565b610bb3565b3480156103cb57600080fd5b506102a2610bd4565b3480156103e057600080fd5b506102cf610be3565b3480156103f557600080fd5b506102a2610404366004612570565b610f2d565b34801561041557600080fd5b506102cf610424366004612570565b610f62565b34801561043557600080fd5b50610449610444366004612570565b610fa6565b60405161025793929190612cbe565b34801561046457600080fd5b5061035561047336600461238f565b6110a8565b34801561048457600080fd5b506102cf6110ec565b34801561049957600080fd5b50610355611137565b3480156104ae57600080fd5b506102cf6104bd366004612570565b61113b565b3480156104ce57600080fd5b506104d76111bc565b60405161025791906126ca565b6102cf6104f236600461252a565b61121d565b34801561050357600080fd5b506102a261124b565b34801561051857600080fd5b506102e661052736600461238f565b61125a565b34801561053857600080fd5b5061027561144c565b34801561054d57600080fd5b506102cf61055c36600461248f565b61145b565b34801561056d57600080fd5b506102cf61057c366004612570565b61146d565b34801561058d57600080fd5b506102cf61059c366004612416565b6114e5565b3480156105ad57600080fd5b506102756105bc366004612570565b611524565b3480156105cd57600080fd5b506102cf6105dc366004612570565b6115a7565b3480156105ed57600080fd5b5061035561161f565b34801561060257600080fd5b5061024a6106113660046123a9565b611625565b34801561062257600080fd5b506102cf61063136600461238f565b611653565b6102cf610644366004612588565b6116c1565b34801561065557600080fd5b506102a2610664366004612570565b611797565b34801561067557600080fd5b50610689610684366004612570565b6117c1565b60405161025796959493929190612cf5565b3480156106a757600080fd5b506103556106b6366004612570565b611895565b60006001600160e01b031982166380ac58cd60e01b14806106ec57506001600160e01b03198216635b5e139f60e01b145b806106fb57506106fb826118a5565b90505b919050565b60606000805461071290612dbc565b80601f016020809104026020016040519081016040528092919081815260200182805461073e90612dbc565b801561078b5780601f106107605761010080835404028352916020019161078b565b820191906000526020600020905b81548152906001019060200180831161076e57829003601f168201915b5050505050905090565b60006107a0826118be565b6107c55760405162461bcd60e51b81526004016107bc90612aec565b60405180910390fd5b506000908152600460205260409020546001600160a01b031690565b60006107ec82610f2d565b9050806001600160a01b0316836001600160a01b031614156108205760405162461bcd60e51b81526004016107bc90612bbc565b806001600160a01b03166108326118db565b6001600160a01b0316148061084e575061084e816106116118db565b61086a5760405162461bcd60e51b81526004016107bc906129c7565b61087483836118df565b505050565b60606010805480602002602001604051908101604052809291908181526020016000905b8282101561099357838290600052602060002090600602016040518060c001604052908160008201548152602001600182015481526020016002820180546108e490612dbc565b80601f016020809104026020016040519081016040528092919081815260200182805461091090612dbc565b801561095d5780601f106109325761010080835404028352916020019161095d565b820191906000526020600020905b81548152906001019060200180831161094057829003601f168201915b5050505050815260200160038201548152602001600482015481526020016005820154815250508152602001906001019061089d565b50505050905090565b6109ad6109a76118db565b8261194d565b6109c95760405162461bcd60e51b81526004016107bc90612c26565b6108748383836119d2565b6109dc61217d565b600082815260096020526040908190208151610120810190925280546060830190815260018201546080840152600282018054849291849160a085019190610a2390612dbc565b80601f0160208091040260200160405190810160405280929190818152602001828054610a4f90612dbc565b8015610a9c5780601f10610a7157610100808354040283529160200191610a9c565b820191906000526020600020905b815481529060010190602001808311610a7f57829003601f168201915b50505050508152602001600382015481526020016004820154815260200160058201548152505081526020016006820160009054906101000a90046001600160a01b03166001600160a01b03166001600160a01b031681526020016007820154815250509050919050565b600c5490565b600d5481565b610b1b6118db565b6001600160a01b0316610b2c61124b565b6001600160a01b031614610b525760405162461bcd60e51b81526004016107bc90612b38565b6000610b5c61124b565b6040519091506001600160a01b038216904780156108fc02916000818181858888f19350505050158015610b94573d6000803e3d6000fd5b5050565b610874838383604051806020016040528060008152506114e5565b600a8181548110610bc357600080fd5b600091825260209091200154905081565b6007546001600160a01b031681565b610beb6118db565b6001600160a01b0316610bfc61124b565b6001600160a01b031614610c225760405162461bcd60e51b81526004016107bc90612b38565b600854600090610c38662386f26fc10000611b05565b610c429190612e12565b905060088181548110610c6557634e487b7160e01b600052603260045260246000fd5b60009182526020822001546040516001600160a01b03909116914780156108fc02929091818181858888f19350505050158015610ca6573d6000803e3d6000fd5b506000604051806060016040528060108481548110610cd557634e487b7160e01b600052603260045260246000fd5b90600052602060002090600602016040518060c00160405290816000820154815260200160018201548152602001600282018054610d1290612dbc565b80601f0160208091040260200160405190810160405280929190818152602001828054610d3e90612dbc565b8015610d8b5780601f10610d6057610100808354040283529160200191610d8b565b820191906000526020600020905b815481529060010190602001808311610d6e57829003601f168201915b505050505081526020016003820154815260200160048201548152602001600582015481525050815260200160088481548110610dd857634e487b7160e01b600052603260045260246000fd5b600091825260209182902001546001600160a01b03168252600a8054929091019185908110610e1757634e487b7160e01b600052603260045260246000fd5b6000918252602080832090910154909252600c54815260098252604090819020835180518255808401516001830155918201518051949550859491938492610e6592600285019201906121a4565b50606082015160038201556080820151600482015560a09091015160059091015560208201516006820180546001600160a01b0319166001600160a01b03909216919091179055604090910151600790910155600c8054906000610ec883612df7565b90915550506000600d8190556040805191825260208201908190529051610ef191600891612228565b506040805160008152602081019182905251610f0f91600a9161227d565b50604080516000815260208101918290525161087491600b9161227d565b6000818152600260205260408120546001600160a01b0316806106fb5760405162461bcd60e51b81526004016107bc90612a6e565b610f6a6118db565b6001600160a01b0316610f7b61124b565b6001600160a01b031614610fa15760405162461bcd60e51b81526004016107bc90612b38565b600f55565b6009602052806000526040600020600091509050806000016040518060c00160405290816000820154815260200160018201548152602001600282018054610fed90612dbc565b80601f016020809104026020016040519081016040528092919081815260200182805461101990612dbc565b80156110665780601f1061103b57610100808354040283529160200191611066565b820191906000526020600020905b81548152906001019060200180831161104957829003601f168201915b50505091835250506003820154602082015260048201546040820152600590910154606090910152600682015460079092015490916001600160a01b03169083565b60006001600160a01b0382166110d05760405162461bcd60e51b81526004016107bc90612a24565b506001600160a01b031660009081526003602052604090205490565b6110f46118db565b6001600160a01b031661110561124b565b6001600160a01b03161461112b5760405162461bcd60e51b81526004016107bc90612b38565b6111356000611b4c565b565b4790565b3361114582610f2d565b6001600160a01b03161461116b5760405162461bcd60e51b81526004016107bc90612bfd565b60006010828154811061118e57634e487b7160e01b600052603260045260246000fd5b906000526020600020906006020190508060040160008154809291906111b390612df7565b91905055505050565b6060600880548060200260200160405190810160405280929190818152602001828054801561078b57602002820191906000526020600020905b81546001600160a01b031681526001909101906020018083116111f6575050505050905090565b600f5434101561123f5760405162461bcd60e51b81526004016107bc9061294f565b61124881611b9e565b50565b6006546001600160a01b031690565b60606000611267836110a8565b67ffffffffffffffff81111561128d57634e487b7160e01b600052604160045260246000fd5b6040519080825280602002602001820160405280156112c657816020015b6112b36122b7565b8152602001906001900390816112ab5790505b5090506000805b60105481101561144357846001600160a01b03166112ea82610f2d565b6001600160a01b03161415611431576010818154811061131a57634e487b7160e01b600052603260045260246000fd5b90600052602060002090600602016040518060c0016040529081600082015481526020016001820154815260200160028201805461135790612dbc565b80601f016020809104026020016040519081016040528092919081815260200182805461138390612dbc565b80156113d05780601f106113a5576101008083540402835291602001916113d0565b820191906000526020600020905b8154815290600101906020018083116113b357829003601f168201915b50505050508152602001600382015481526020016004820154815260200160058201548152505083838151811061141757634e487b7160e01b600052603260045260246000fd5b6020026020010181905250818061142d90612df7565b9250505b8061143b81612df7565b9150506112cd565b50909392505050565b60606001805461071290612dbc565b610b946114666118db565b8383611d1c565b3361147782610f2d565b6001600160a01b03161461149d5760405162461bcd60e51b81526004016107bc90612bfd565b6000601082815481106114c057634e487b7160e01b600052603260045260246000fd5b906000526020600020906006020190508060030160008154809291906111b390612df7565b6114f66114f06118db565b8361194d565b6115125760405162461bcd60e51b81526004016107bc90612c26565b61151e84848484611dbf565b50505050565b606061152f826118be565b61154b5760405162461bcd60e51b81526004016107bc90612b6d565b6000611555611df2565b9050600081511161157557604051806020016040528060008152506115a0565b8061157f84611e04565b60405160200161159092919061264a565b6040516020818303038152906040525b9392505050565b336115b182610f2d565b6001600160a01b0316146115d75760405162461bcd60e51b81526004016107bc90612bfd565b6000601082815481106115fa57634e487b7160e01b600052603260045260246000fd5b906000526020600020906006020190508060050160008154809291906111b390612df7565b600c5481565b6001600160a01b03918216600090815260056020908152604080832093909416825291909152205460ff1690565b61165b6118db565b6001600160a01b031661166c61124b565b6001600160a01b0316146116925760405162461bcd60e51b81526004016107bc90612b38565b6001600160a01b0381166116b85760405162461bcd60e51b81526004016107bc906127e7565b61124881611b4c565b600f543410156116e35760405162461bcd60e51b81526004016107bc90612924565b600d80549060006116f383612df7565b90915550506008805460018181019092557ff3f7a9fe364faab93b216da50a3214154f22a0a2b415b23a84c8169e8b636ee30180546001600160a01b03191633179055600a80548083019091557fc65a7bb8d6351c1cf70c95a316cc6a92839c986682d98bc35f958f4883f9d2a80191909155600b805491820181556000527f0175b7a638427703f0dbe7bb9bbf987a2551717b34e79f33b5b1008d1fa01db90155565b600881815481106117a757600080fd5b6000918252602090912001546001600160a01b0316905081565b601081815481106117d157600080fd5b906000526020600020906006020160009150905080600001549080600101549080600201805461180090612dbc565b80601f016020809104026020016040519081016040528092919081815260200182805461182c90612dbc565b80156118795780601f1061184e57610100808354040283529160200191611879565b820191906000526020600020905b81548152906001019060200180831161185c57829003601f168201915b5050505050908060030154908060040154908060050154905086565b600b8181548110610bc357600080fd5b6001600160e01b031981166301ffc9a760e01b14919050565b6000908152600260205260409020546001600160a01b0316151590565b3390565b600081815260046020526040902080546001600160a01b0319166001600160a01b038416908117909155819061191482610f2d565b6001600160a01b03167f8c5be1e5ebec7d5bd14f71427d1e84f3dd0314c0f7b2291e5b200ac8c7c3b92560405160405180910390a45050565b6000611958826118be565b6119745760405162461bcd60e51b81526004016107bc9061297b565b600061197f83610f2d565b9050806001600160a01b0316846001600160a01b031614806119a657506119a68185611625565b806119ca5750836001600160a01b03166119bf84610795565b6001600160a01b0316145b949350505050565b826001600160a01b03166119e582610f2d565b6001600160a01b031614611a0b5760405162461bcd60e51b81526004016107bc9061282d565b6001600160a01b038216611a315760405162461bcd60e51b81526004016107bc906128a9565b611a3c838383610874565b611a476000826118df565b6001600160a01b0383166000908152600360205260408120805460019290611a70908490612d79565b90915550506001600160a01b0382166000908152600360205260408120805460019290611a9e908490612d4d565b909155505060008181526002602052604080822080546001600160a01b0319166001600160a01b0386811691821790925591518493918716917fddf252ad1be2c89b69c2b068fc378daa952ba7f163c4a11628f55a4df523b3ef91a4610874838383610874565b6007546040516000918291611b28916001600160a01b0316904290602001612628565b60408051601f19818403018152919052805160209091012090506115a08382612e12565b600680546001600160a01b038381166001600160a01b0319831681179093556040519116919082907f8be0079c531659141344cd1fd0a4f28419497f9722a3daafe3b4186f6b6457e090600090a35050565b6000611bb0662386f26fc10000611b05565b6040805160c081018252600e54815260208082018481529282018681526001606084018190526080840181905260a08401819052601080549182018155600052835160069091027f1b6847dc741a1b0cd08d278845f9d819d87b734759afb55fe2de5cb82a9ae672810191825594517f1b6847dc741a1b0cd08d278845f9d819d87b734759afb55fe2de5cb82a9ae67386015590518051959650929485949193611c80937f1b6847dc741a1b0cd08d278845f9d819d87b734759afb55fe2de5cb82a9ae6749093019201906121a4565b50606082015181600301556080820151816004015560a082015181600501555050611cad33600e54611f1f565b336001600160a01b03167f01e07868b1f4e467bdcbf94eb08088b9aec5a391e616922ce9e9051a61026954600e54836060015184608001518560a00151604051611cfa9493929190612d32565b60405180910390a2600e8054906000611d1283612df7565b9190505550505050565b816001600160a01b0316836001600160a01b03161415611d4e5760405162461bcd60e51b81526004016107bc906128ed565b6001600160a01b0383811660008181526005602090815260408083209487168084529490915290819020805460ff1916851515179055517f17307eab39ab6107e8899845ad3d59bd9653f200f220920489ca2b5937696c3190611db2908590612777565b60405180910390a3505050565b611dca8484846119d2565b611dd684848484611f39565b61151e5760405162461bcd60e51b81526004016107bc90612795565b60408051602081019091526000815290565b606081611e2957506040805180820190915260018152600360fc1b60208201526106fe565b8160005b8115611e535780611e3d81612df7565b9150611e4c9050600a83612d65565b9150611e2d565b60008167ffffffffffffffff811115611e7c57634e487b7160e01b600052604160045260246000fd5b6040519080825280601f01601f191660200182016040528015611ea6576020820181803683370190505b5090505b84156119ca57611ebb600183612d79565b9150611ec8600a86612e12565b611ed3906030612d4d565b60f81b818381518110611ef657634e487b7160e01b600052603260045260246000fd5b60200101906001600160f81b031916908160001a905350611f18600a86612d65565b9450611eaa565b610b94828260405180602001604052806000815250612054565b6000611f4d846001600160a01b0316612087565b1561204957836001600160a01b031663150b7a02611f696118db565b8786866040518563ffffffff1660e01b8152600401611f8b949392919061268d565b602060405180830381600087803b158015611fa557600080fd5b505af1925050508015611fd5575060408051601f3d908101601f19168201909252611fd29181019061250e565b60015b61202f573d808015612003576040519150601f19603f3d011682016040523d82523d6000602084013e612008565b606091505b5080516120275760405162461bcd60e51b81526004016107bc90612795565b805181602001fd5b6001600160e01b031916630a85bd0160e11b1490506119ca565b506001949350505050565b61205e8383612096565b61206b6000848484611f39565b6108745760405162461bcd60e51b81526004016107bc90612795565b6001600160a01b03163b151590565b6001600160a01b0382166120bc5760405162461bcd60e51b81526004016107bc90612ab7565b6120c5816118be565b156120e25760405162461bcd60e51b81526004016107bc90612872565b6120ee60008383610874565b6001600160a01b0382166000908152600360205260408120805460019290612117908490612d4d565b909155505060008181526002602052604080822080546001600160a01b0319166001600160a01b03861690811790915590518392907fddf252ad1be2c89b69c2b068fc378daa952ba7f163c4a11628f55a4df523b3ef908290a4610b9460008383610874565b60405180606001604052806121906122b7565b815260006020820181905260409091015290565b8280546121b090612dbc565b90600052602060002090601f0160209004810192826121d25760008555612218565b82601f106121eb57805160ff1916838001178555612218565b82800160010185558215612218579182015b828111156122185782518255916020019190600101906121fd565b506122249291506122ed565b5090565b828054828255906000526020600020908101928215612218579160200282015b8281111561221857825182546001600160a01b0319166001600160a01b03909116178255602090920191600190910190612248565b82805482825590600052602060002090810192821561221857916020028201828111156122185782518255916020019190600101906121fd565b6040518060c001604052806000815260200160008152602001606081526020016000815260200160008152602001600081525090565b5b8082111561222457600081556001016122ee565b600067ffffffffffffffff8084111561231d5761231d612e52565b604051601f8501601f19908116603f0116810190828211818310171561234557612345612e52565b8160405280935085815286868601111561235e57600080fd5b858560208301376000602087830101525050509392505050565b80356001600160a01b03811681146106fe57600080fd5b6000602082840312156123a0578081fd5b6115a082612378565b600080604083850312156123bb578081fd5b6123c483612378565b91506123d260208401612378565b90509250929050565b6000806000606084860312156123ef578081fd5b6123f884612378565b925061240660208501612378565b9150604084013590509250925092565b6000806000806080858703121561242b578081fd5b61243485612378565b935061244260208601612378565b925060408501359150606085013567ffffffffffffffff811115612464578182fd5b8501601f81018713612474578182fd5b61248387823560208401612302565b91505092959194509250565b600080604083850312156124a1578182fd5b6124aa83612378565b9150602083013580151581146124be578182fd5b809150509250929050565b600080604083850312156124db578182fd5b6124e483612378565b946020939093013593505050565b600060208284031215612503578081fd5b81356115a081612e68565b60006020828403121561251f578081fd5b81516115a081612e68565b60006020828403121561253b578081fd5b813567ffffffffffffffff811115612551578182fd5b8201601f81018413612561578182fd5b6119ca84823560208401612302565b600060208284031215612581578081fd5b5035919050565b6000806040838503121561259a578182fd5b50508035926020909101359150565b600081518084526125c1816020860160208601612d90565b601f01601f19169290920160200192915050565b60008151835260208201516020840152604082015160c060408501526125fe60c08501826125a9565b9050606083015160608501526080830151608085015260a083015160a08501528091505092915050565b60609290921b6bffffffffffffffffffffffff19168252601482015260340190565b6000835161265c818460208801612d90565b835190830190612670818360208801612d90565b01949350505050565b6001600160a01b0391909116815260200190565b6001600160a01b03858116825284166020820152604081018390526080606082018190526000906126c0908301846125a9565b9695505050505050565b6020808252825182820181905260009190848201906040850190845b8181101561270b5783516001600160a01b0316835292840192918401916001016126e6565b50909695505050505050565b6000602080830181845280855180835260408601915060408482028701019250838701855b8281101561276a57603f198886030184526127588583516125d5565b9450928501929085019060010161273c565b5092979650505050505050565b901515815260200190565b6000602082526115a060208301846125a9565b60208082526032908201527f4552433732313a207472616e7366657220746f206e6f6e20455243373231526560408201527131b2b4bb32b91034b6b83632b6b2b73a32b960711b606082015260800190565b60208082526026908201527f4f776e61626c653a206e6577206f776e657220697320746865207a65726f206160408201526564647265737360d01b606082015260800190565b60208082526025908201527f4552433732313a207472616e736665722066726f6d20696e636f72726563742060408201526437bbb732b960d91b606082015260800190565b6020808252601c908201527f4552433732313a20746f6b656e20616c7265616479206d696e74656400000000604082015260600190565b60208082526024908201527f4552433732313a207472616e7366657220746f20746865207a65726f206164646040820152637265737360e01b606082015260800190565b60208082526019908201527f4552433732313a20617070726f766520746f2063616c6c657200000000000000604082015260600190565b6020808252601190820152704e6f7420656e6f7567682065746865727360781b604082015260600190565b602080825260129082015271119959481a5cc81b9bdd0818dbdc9c9958dd60721b604082015260600190565b6020808252602c908201527f4552433732313a206f70657261746f7220717565727920666f72206e6f6e657860408201526b34b9ba32b73a103a37b5b2b760a11b606082015260800190565b60208082526038908201527f4552433732313a20617070726f76652063616c6c6572206973206e6f74206f7760408201527f6e6572206e6f7220617070726f76656420666f7220616c6c0000000000000000606082015260800190565b6020808252602a908201527f4552433732313a2062616c616e636520717565727920666f7220746865207a65604082015269726f206164647265737360b01b606082015260800190565b60208082526029908201527f4552433732313a206f776e657220717565727920666f72206e6f6e657869737460408201526832b73a103a37b5b2b760b91b606082015260800190565b6020808252818101527f4552433732313a206d696e7420746f20746865207a65726f2061646472657373604082015260600190565b6020808252602c908201527f4552433732313a20617070726f76656420717565727920666f72206e6f6e657860408201526b34b9ba32b73a103a37b5b2b760a11b606082015260800190565b6020808252818101527f4f776e61626c653a2063616c6c6572206973206e6f7420746865206f776e6572604082015260600190565b6020808252602f908201527f4552433732314d657461646174613a2055524920717565727920666f72206e6f60408201526e3732bc34b9ba32b73a103a37b5b2b760891b606082015260800190565b60208082526021908201527f4552433732313a20617070726f76616c20746f2063757272656e74206f776e656040820152603960f91b606082015260800190565b6020808252600f908201526e165bdd481b5d5cdd081bdddb881a5d608a1b604082015260600190565b60208082526031908201527f4552433732313a207472616e736665722063616c6c6572206973206e6f74206f6040820152701ddb995c881b9bdc88185c1c1c9bdd9959607a1b606082015260800190565b600060208252825160606020840152612c9360808401826125d5565b60208501516001600160a01b0316604085810191909152909401516060909301929092525090919050565b600060608252612cd160608301866125d5565b6001600160a01b039490941660208301525060400152919050565b90815260200190565b600087825286602083015260c06040830152612d1460c08301876125a9565b606083019590955250608081019290925260a0909101529392505050565b93845260208401929092526040830152606082015260800190565b60008219821115612d6057612d60612e26565b500190565b600082612d7457612d74612e3c565b500490565b600082821015612d8b57612d8b612e26565b500390565b60005b83811015612dab578181015183820152602001612d93565b8381111561151e5750506000910152565b600281046001821680612dd057607f821691505b60208210811415612df157634e487b7160e01b600052602260045260246000fd5b50919050565b6000600019821415612e0b57612e0b612e26565b5060010190565b600082612e2157612e21612e3c565b500690565b634e487b7160e01b600052601160045260246000fd5b634e487b7160e01b600052601260045260246000fd5b634e487b7160e01b600052604160045260246000fd5b6001600160e01b03198116811461124857600080fdfea2646970667358221220d24dbc388e3d73b655e2c0f37d889dc6732028ca42b645a24b7c9cb3c418399564736f6c63430008010033",
  "immutableReferences": {},
  "source": "// SPDX-License-Identifier: MIT\r\npragma solidity ^0.8.0;\r\n\r\nimport \"@openzeppelin/contracts/token/ERC721/ERC721.sol\";\r\nimport \"@openzeppelin/contracts/access/Ownable.sol\";\r\n\r\ncontract CarToken is ERC721, Ownable{\r\n    //Betting \r\n    address public _owner_;\r\n    address payable[] public players;\r\n    mapping (uint => Bet) public lotteryHistory;\r\n    uint[] public amounts;\r\n    uint[] public ids;\r\n    uint public lotteryId;\r\n    uint public playerCount;\r\n    //Token\r\n    uint256 tokenCount;\r\n    uint256 fee = 0.01 ether; \r\n\r\n    struct Car{\r\n        uint256 id;\r\n        uint256 vin;    //Vehicle identification number\r\n        string name;\r\n        uint256 enginePower;\r\n        uint256 aerodynamicStability;\r\n        uint256 chasis;\r\n    }\r\n    struct Bet{\r\n        Car car;\r\n        address payable player;\r\n        uint256 betAmount;\r\n    }\r\n\r\n    Car[] public cars;\r\n\r\n    event NewCar(address indexed owner, uint256 id, uint256 enginePower, uint256 aerodynamicStability, uint256 chasis);\r\n\r\n    constructor(string memory _name, string memory _symbol)\r\n        ERC721(_name, _symbol)\r\n    {\r\n        _owner_ = msg.sender;\r\n        lotteryId = 1;\r\n        playerCount = 0;\r\n    }\r\n\r\n    //Common functions\r\n    function _createRandomNumber(uint256 _mod) internal view returns(uint256){\r\n        uint256 randomNum = uint256(keccak256(abi.encodePacked(_owner_, block.timestamp)));\r\n        return randomNum % _mod;\r\n    }\r\n\r\n    function setFee(uint256 _fee) external onlyOwner() {\r\n        fee = _fee;\r\n    }\r\n    \r\n    //Betting Functions\r\n    function getWinnerByLottery(uint lottery) public view returns(Bet memory bet){\r\n        return lotteryHistory[lottery];\r\n    }\r\n\r\n    function getPotBalance() public view returns(uint){\r\n        return address(this).balance;\r\n    }\r\n\r\n    function getPlayers() public view returns(address payable[] memory){\r\n        return players;\r\n    }\r\n\r\n\r\n    function enterWithCar(uint256 _carId, uint256 _betAmount) public payable {\r\n        require(msg.value >= fee, \"Not enough ethers\");\r\n        playerCount++;\r\n        players.push(payable(msg.sender));\r\n        amounts.push(_betAmount);\r\n        ids.push(_carId);\r\n    }\r\n\r\n    function pickWinner() public onlyOwner {\r\n        uint index = _createRandomNumber(10**16) % players.length;\r\n        players[index].transfer(address(this).balance);\r\n        Bet memory bet = Bet(cars[index], players[index], amounts[index]);\r\n        lotteryHistory[lotteryId] = bet;\r\n        lotteryId++;\r\n        //Reset array for next round\r\n\r\n        playerCount = 0;\r\n        players = new address payable[](0);\r\n        amounts = new uint[](0);\r\n        ids = new uint[](0);\r\n    }\r\n\r\n    function getLotteryCount() public view returns(uint){\r\n        return lotteryId;\r\n    }\r\n \r\n    //Token Functions\r\n    function withdraw() external payable onlyOwner() {\r\n        address payable _owner = payable(owner());\r\n        _owner.transfer(address(this).balance);\r\n    }\r\n\r\n    //Create car\r\n    function _createCar(string memory _name) internal{\r\n        uint256 vin = _createRandomNumber(10**16);\r\n        Car memory car = Car(tokenCount, vin, _name, 1,1,1);\r\n        cars.push(car);\r\n        _safeMint(msg.sender, tokenCount);\r\n        emit NewCar(msg.sender, tokenCount, car.enginePower, car.aerodynamicStability, car.chasis);\r\n        tokenCount++;\r\n    }\r\n\r\n    function createRandomCar(string memory _name) public payable {\r\n        require(msg.value >= fee, \"Fee is not correct\");\r\n        _createCar(_name);\r\n    } \r\n    \r\n    function getCars() public view returns(Car[] memory){\r\n        return cars;\r\n    }\r\n\r\n    function getOwnerCars(address _owner) public view returns(Car[] memory){\r\n        Car[] memory result = new Car[](balanceOf(_owner));\r\n        uint256 counter = 0;\r\n        for(uint256 i=0; i<cars.length; i++){\r\n            if(ownerOf(i) == _owner){\r\n                result[counter] = cars[i];\r\n                counter++;\r\n            }\r\n        }\r\n        return result;\r\n    }\r\n\r\n    function upgradeEngine(uint256 _carId) public {\r\n        require(ownerOf(_carId) == msg.sender, \"You must own it\");\r\n        Car storage car = cars[_carId];\r\n        car.enginePower++;\r\n    }\r\n\r\n    function upgradeAerodynamicStablity(uint256 _carId) public {\r\n        require(ownerOf(_carId) == msg.sender, \"You must own it\");\r\n        Car storage car = cars[_carId];\r\n        car.aerodynamicStability++;\r\n    }\r\n\r\n    function upgradeChasis(uint256 _carId) public {\r\n        require(ownerOf(_carId) == msg.sender, \"You must own it\");\r\n        Car storage car = cars[_carId];\r\n        car.chasis++;\r\n    }\r\n\r\n}",
  "sourcePath": "C:\\Users\\mmbat\\Desktop\\nft\\123\\nft\\contracts\\CarToken.sol",
  "compiler": {
    "name": "solc",
    "version": "0.8.1+commit.df193b15.Emscripten.clang"
  },
  "schemaVersion": "3.4.7",
  "updatedAt": "2022-06-07T21:42:12.886Z",
  "networkType": "ethereum",
  "devdoc": {
    "kind": "dev",
    "methods": {
      "approve(address,uint256)": {
        "details": "See {IERC721-approve}."
      },
      "balanceOf(address)": {
        "details": "See {IERC721-balanceOf}."
      },
      "getApproved(uint256)": {
        "details": "See {IERC721-getApproved}."
      },
      "isApprovedForAll(address,address)": {
        "details": "See {IERC721-isApprovedForAll}."
      },
      "name()": {
        "details": "See {IERC721Metadata-name}."
      },
      "owner()": {
        "details": "Returns the address of the current owner."
      },
      "ownerOf(uint256)": {
        "details": "See {IERC721-ownerOf}."
      },
      "renounceOwnership()": {
        "details": "Leaves the contract without owner. It will not be possible to call `onlyOwner` functions anymore. Can only be called by the current owner. NOTE: Renouncing ownership will leave the contract without an owner, thereby removing any functionality that is only available to the owner."
      },
      "safeTransferFrom(address,address,uint256)": {
        "details": "See {IERC721-safeTransferFrom}."
      },
      "safeTransferFrom(address,address,uint256,bytes)": {
        "details": "See {IERC721-safeTransferFrom}."
      },
      "setApprovalForAll(address,bool)": {
        "details": "See {IERC721-setApprovalForAll}."
      },
      "supportsInterface(bytes4)": {
        "details": "See {IERC165-supportsInterface}."
      },
      "symbol()": {
        "details": "See {IERC721Metadata-symbol}."
      },
      "tokenURI(uint256)": {
        "details": "See {IERC721Metadata-tokenURI}."
      },
      "transferFrom(address,address,uint256)": {
        "details": "See {IERC721-transferFrom}."
      },
      "transferOwnership(address)": {
        "details": "Transfers ownership of the contract to a new account (`newOwner`). Can only be called by the current owner."
      }
    },
    "version": 1
  },
  "userdoc": {
    "kind": "user",
    "methods": {},
    "version": 1
  }
}